:100000000C9434000C9451000C9451000C94510049
:100010000C9451000C9453000C9451000C9451001A
:100020000C9451000C9451000C9451000C9451000C
:100030000C9451000C9451000C9451000C945100FC
:100040000C9451000C9451000C9451000C945100EC
:100050000C9451000C9451000C9451000C945100DC
:100060000C9451000C94510011241FBECFEFD8E026
:10007000DEBFCDBF11E0A0E0B1E0EAEDF2E002C0EA
:1000800005900D92A030B107D9F721E0A0E0B1E0D2
:1000900001C01D92A630B207E1F70E94EB000C945C
:1000A0006B010C9400001F920F920FB60F92112457
:1000B0008F939F93489914C08091040190910501FA
:1000C000039729F4109205011092040109C0809150
:1000D000040190910501019690930501809304011C
:1000E000499916C08091040190910501892B39F43A
:1000F00083E090E0909305018093040109C0809112
:1001000004019091050101979093050180930401EA
:100110004A9914C08091020190910301039729F438
:10012000109203011092020109C080910201909186
:100130000301019690930301809302014B9916C02D
:100140008091020190910301892B39F483E090E0C2
:10015000909303018093020109C080910201909164
:100160000301019790930301809302014C9914C0FD
:100170008091000190910101039729F410920101EF
:100180001092000109C08091000190910101019637
:1001900090930101809300014D9916C08091000158
:1001A00090910101892B39F483E090E09093010153
:1001B0008093000109C08091000190910101019795
:1001C00090930101809300019F918F910F900FBE3A
:1001D0000F901F90189580EC8AB98FE387B98FEF45
:1001E00084B918B815B88BB18F638BB9E8E6F0E025
:1001F000808184608083EDE6F0E080818F6380837E
:10020000789480910401909105018130910561F00D
:1002100030F08230910569F0039781F014C0289A7C
:1002200029982A982B9810C02898299A2A982B98B0
:100230000BC0289829982A9A2B9806C028982998A4
:100240002A982B9A01C015B8809102019091030160
:100250008130910561F030F08230910569F00397AB
:1002600081F014C02C9A2D982E982F9810C02C989D
:100270002D9A2E982F980BC02C982D982E9A2F9847
:1002800006C02C982D982E982F9A01C015B88091F1
:100290000001909101018130910561F030F08230D0
:1002A000910569F0039781F014C0409A41984298F3
:1002B0004398A7CF4098419A42984398A2CF40983C
:1002C0004198429A43989DCF409841984298439ACA
:0A02D00098CF18B896CFF894FFCF2E
:00000001FF
